{
  "_format": "hh-sol-artifact-1",
  "contractName": "MyNFT",
  "sourceName": "contracts/MyNFT.sol",
  "abi": [
    {
      "inputs": [],
      "stateMutability": "nonpayable",
      "type": "constructor"
    },
    {
      "inputs": [
        {
          "internalType": "address",
          "name": "sender",
          "type": "address"
        },
        {
          "internalType": "uint256",
          "name": "tokenId",
          "type": "uint256"
        },
        {
          "internalType": "address",
          "name": "owner",
          "type": "address"
        }
      ],
      "name": "ERC721IncorrectOwner",
      "type": "error"
    },
    {
      "inputs": [
        {
          "internalType": "address",
          "name": "operator",
          "type": "address"
        },
        {
          "internalType": "uint256",
          "name": "tokenId",
          "type": "uint256"
        }
      ],
      "name": "ERC721InsufficientApproval",
      "type": "error"
    },
    {
      "inputs": [
        {
          "internalType": "address",
          "name": "approver",
          "type": "address"
        }
      ],
      "name": "ERC721InvalidApprover",
      "type": "error"
    },
    {
      "inputs": [
        {
          "internalType": "address",
          "name": "operator",
          "type": "address"
        }
      ],
      "name": "ERC721InvalidOperator",
      "type": "error"
    },
    {
      "inputs": [
        {
          "internalType": "address",
          "name": "owner",
          "type": "address"
        }
      ],
      "name": "ERC721InvalidOwner",
      "type": "error"
    },
    {
      "inputs": [
        {
          "internalType": "address",
          "name": "receiver",
          "type": "address"
        }
      ],
      "name": "ERC721InvalidReceiver",
      "type": "error"
    },
    {
      "inputs": [
        {
          "internalType": "address",
          "name": "sender",
          "type": "address"
        }
      ],
      "name": "ERC721InvalidSender",
      "type": "error"
    },
    {
      "inputs": [
        {
          "internalType": "uint256",
          "name": "tokenId",
          "type": "uint256"
        }
      ],
      "name": "ERC721NonexistentToken",
      "type": "error"
    },
    {
      "inputs": [
        {
          "internalType": "address",
          "name": "owner",
          "type": "address"
        }
      ],
      "name": "OwnableInvalidOwner",
      "type": "error"
    },
    {
      "inputs": [
        {
          "internalType": "address",
          "name": "account",
          "type": "address"
        }
      ],
      "name": "OwnableUnauthorizedAccount",
      "type": "error"
    },
    {
      "anonymous": false,
      "inputs": [
        {
          "indexed": true,
          "internalType": "address",
          "name": "owner",
          "type": "address"
        },
        {
          "indexed": true,
          "internalType": "address",
          "name": "approved",
          "type": "address"
        },
        {
          "indexed": true,
          "internalType": "uint256",
          "name": "tokenId",
          "type": "uint256"
        }
      ],
      "name": "Approval",
      "type": "event"
    },
    {
      "anonymous": false,
      "inputs": [
        {
          "indexed": true,
          "internalType": "address",
          "name": "owner",
          "type": "address"
        },
        {
          "indexed": true,
          "internalType": "address",
          "name": "operator",
          "type": "address"
        },
        {
          "indexed": false,
          "internalType": "bool",
          "name": "approved",
          "type": "bool"
        }
      ],
      "name": "ApprovalForAll",
      "type": "event"
    },
    {
      "anonymous": false,
      "inputs": [
        {
          "indexed": true,
          "internalType": "address",
          "name": "previousOwner",
          "type": "address"
        },
        {
          "indexed": true,
          "internalType": "address",
          "name": "newOwner",
          "type": "address"
        }
      ],
      "name": "OwnershipTransferred",
      "type": "event"
    },
    {
      "anonymous": false,
      "inputs": [
        {
          "indexed": true,
          "internalType": "address",
          "name": "from",
          "type": "address"
        },
        {
          "indexed": true,
          "internalType": "address",
          "name": "to",
          "type": "address"
        },
        {
          "indexed": true,
          "internalType": "uint256",
          "name": "tokenId",
          "type": "uint256"
        }
      ],
      "name": "Transfer",
      "type": "event"
    },
    {
      "inputs": [
        {
          "internalType": "address",
          "name": "to",
          "type": "address"
        },
        {
          "internalType": "uint256",
          "name": "tokenId",
          "type": "uint256"
        }
      ],
      "name": "approve",
      "outputs": [],
      "stateMutability": "nonpayable",
      "type": "function"
    },
    {
      "inputs": [
        {
          "internalType": "address",
          "name": "owner",
          "type": "address"
        }
      ],
      "name": "balanceOf",
      "outputs": [
        {
          "internalType": "uint256",
          "name": "",
          "type": "uint256"
        }
      ],
      "stateMutability": "view",
      "type": "function"
    },
    {
      "inputs": [
        {
          "internalType": "uint256",
          "name": "tokenId",
          "type": "uint256"
        }
      ],
      "name": "getApproved",
      "outputs": [
        {
          "internalType": "address",
          "name": "",
          "type": "address"
        }
      ],
      "stateMutability": "view",
      "type": "function"
    },
    {
      "inputs": [],
      "name": "getCurrentTokenId",
      "outputs": [
        {
          "internalType": "uint256",
          "name": "",
          "type": "uint256"
        }
      ],
      "stateMutability": "view",
      "type": "function"
    },
    {
      "inputs": [
        {
          "internalType": "address",
          "name": "owner",
          "type": "address"
        },
        {
          "internalType": "address",
          "name": "operator",
          "type": "address"
        }
      ],
      "name": "isApprovedForAll",
      "outputs": [
        {
          "internalType": "bool",
          "name": "",
          "type": "bool"
        }
      ],
      "stateMutability": "view",
      "type": "function"
    },
    {
      "inputs": [
        {
          "internalType": "address",
          "name": "recipient",
          "type": "address"
        },
        {
          "internalType": "string",
          "name": "_tokenURI",
          "type": "string"
        }
      ],
      "name": "mintNFT",
      "outputs": [
        {
          "internalType": "uint256",
          "name": "",
          "type": "uint256"
        }
      ],
      "stateMutability": "nonpayable",
      "type": "function"
    },
    {
      "inputs": [],
      "name": "name",
      "outputs": [
        {
          "internalType": "string",
          "name": "",
          "type": "string"
        }
      ],
      "stateMutability": "view",
      "type": "function"
    },
    {
      "inputs": [],
      "name": "owner",
      "outputs": [
        {
          "internalType": "address",
          "name": "",
          "type": "address"
        }
      ],
      "stateMutability": "view",
      "type": "function"
    },
    {
      "inputs": [
        {
          "internalType": "uint256",
          "name": "tokenId",
          "type": "uint256"
        }
      ],
      "name": "ownerOf",
      "outputs": [
        {
          "internalType": "address",
          "name": "",
          "type": "address"
        }
      ],
      "stateMutability": "view",
      "type": "function"
    },
    {
      "inputs": [],
      "name": "renounceOwnership",
      "outputs": [],
      "stateMutability": "nonpayable",
      "type": "function"
    },
    {
      "inputs": [
        {
          "internalType": "address",
          "name": "from",
          "type": "address"
        },
        {
          "internalType": "address",
          "name": "to",
          "type": "address"
        },
        {
          "internalType": "uint256",
          "name": "tokenId",
          "type": "uint256"
        }
      ],
      "name": "safeTransferFrom",
      "outputs": [],
      "stateMutability": "nonpayable",
      "type": "function"
    },
    {
      "inputs": [
        {
          "internalType": "address",
          "name": "from",
          "type": "address"
        },
        {
          "internalType": "address",
          "name": "to",
          "type": "address"
        },
        {
          "internalType": "uint256",
          "name": "tokenId",
          "type": "uint256"
        },
        {
          "internalType": "bytes",
          "name": "data",
          "type": "bytes"
        }
      ],
      "name": "safeTransferFrom",
      "outputs": [],
      "stateMutability": "nonpayable",
      "type": "function"
    },
    {
      "inputs": [
        {
          "internalType": "address",
          "name": "operator",
          "type": "address"
        },
        {
          "internalType": "bool",
          "name": "approved",
          "type": "bool"
        }
      ],
      "name": "setApprovalForAll",
      "outputs": [],
      "stateMutability": "nonpayable",
      "type": "function"
    },
    {
      "inputs": [
        {
          "internalType": "bytes4",
          "name": "interfaceId",
          "type": "bytes4"
        }
      ],
      "name": "supportsInterface",
      "outputs": [
        {
          "internalType": "bool",
          "name": "",
          "type": "bool"
        }
      ],
      "stateMutability": "view",
      "type": "function"
    },
    {
      "inputs": [],
      "name": "symbol",
      "outputs": [
        {
          "internalType": "string",
          "name": "",
          "type": "string"
        }
      ],
      "stateMutability": "view",
      "type": "function"
    },
    {
      "inputs": [
        {
          "internalType": "uint256",
          "name": "tokenId",
          "type": "uint256"
        }
      ],
      "name": "tokenURI",
      "outputs": [
        {
          "internalType": "string",
          "name": "",
          "type": "string"
        }
      ],
      "stateMutability": "view",
      "type": "function"
    },
    {
      "inputs": [
        {
          "internalType": "address",
          "name": "from",
          "type": "address"
        },
        {
          "internalType": "address",
          "name": "to",
          "type": "address"
        },
        {
          "internalType": "uint256",
          "name": "tokenId",
          "type": "uint256"
        }
      ],
      "name": "transferFrom",
      "outputs": [],
      "stateMutability": "nonpayable",
      "type": "function"
    },
    {
      "inputs": [
        {
          "internalType": "address",
          "name": "newOwner",
          "type": "address"
        }
      ],
      "name": "transferOwnership",
      "outputs": [],
      "stateMutability": "nonpayable",
      "type": "function"
    }
  ],
  "bytecode": "0x60806040523480156200001157600080fd5b50336040518060400160405280600581526020017f4d794e46540000000000000000000000000000000000000000000000000000008152506040518060400160405280600481526020017f4d4e465400000000000000000000000000000000000000000000000000000000815250816000908162000090919062000472565b508060019081620000a2919062000472565b505050600073ffffffffffffffffffffffffffffffffffffffff168173ffffffffffffffffffffffffffffffffffffffff16036200011a5760006040517f1e4fbdf70000000000000000000000000000000000000000000000000000000081526004016200011191906200059e565b60405180910390fd5b6200012b816200013260201b60201c565b50620005bb565b6000600660009054906101000a900473ffffffffffffffffffffffffffffffffffffffff16905081600660006101000a81548173ffffffffffffffffffffffffffffffffffffffff021916908373ffffffffffffffffffffffffffffffffffffffff1602179055508173ffffffffffffffffffffffffffffffffffffffff168173ffffffffffffffffffffffffffffffffffffffff167f8be0079c531659141344cd1fd0a4f28419497f9722a3daafe3b4186f6b6457e060405160405180910390a35050565b600081519050919050565b7f4e487b7100000000000000000000000000000000000000000000000000000000600052604160045260246000fd5b7f4e487b7100000000000000000000000000000000000000000000000000000000600052602260045260246000fd5b600060028204905060018216806200027a57607f821691505b60208210810362000290576200028f62000232565b5b50919050565b60008190508160005260206000209050919050565b60006020601f8301049050919050565b600082821b905092915050565b600060088302620002fa7fffffffffffffffffffffffffffffffffffffffffffffffffffffffffffffffff82620002bb565b620003068683620002bb565b95508019841693508086168417925050509392505050565b6000819050919050565b6000819050919050565b6000620003536200034d62000347846200031e565b62000328565b6200031e565b9050919050565b6000819050919050565b6200036f8362000332565b620003876200037e826200035a565b848454620002c8565b825550505050565b600090565b6200039e6200038f565b620003ab81848462000364565b505050565b5b81811015620003d357620003c760008262000394565b600181019050620003b1565b5050565b601f8211156200042257620003ec8162000296565b620003f784620002ab565b8101602085101562000407578190505b6200041f6200041685620002ab565b830182620003b0565b50505b505050565b600082821c905092915050565b6000620004476000198460080262000427565b1980831691505092915050565b600062000462838362000434565b9150826002028217905092915050565b6200047d82620001f8565b67ffffffffffffffff81111562000499576200049862000203565b5b620004a5825462000261565b620004b2828285620003d7565b600060209050601f831160018114620004ea5760008415620004d5578287015190505b620004e1858262000454565b86555062000551565b601f198416620004fa8662000296565b60005b828110156200052457848901518255600182019150602085019450602081019050620004fd565b8683101562000544578489015162000540601f89168262000434565b8355505b6001600288020188555050505b505050505050565b600073ffffffffffffffffffffffffffffffffffffffff82169050919050565b6000620005868262000559565b9050919050565b620005988162000579565b82525050565b6000602082019050620005b560008301846200058d565b92915050565b6127b580620005cb6000396000f3fe608060405234801561001057600080fd5b50600436106101165760003560e01c8063715018a6116100a2578063b88d4fde11610071578063b88d4fde146102cd578063c87b56dd146102e9578063e985e9c514610319578063eacabe1414610349578063f2fde38b1461037957610116565b8063715018a61461026b5780638da5cb5b1461027557806395d89b4114610293578063a22cb465146102b157610116565b806323b872dd116100e957806323b872dd146101b557806342842e0e146101d157806356189236146101ed5780636352211e1461020b57806370a082311461023b57610116565b806301ffc9a71461011b57806306fdde031461014b578063081812fc14610169578063095ea7b314610199575b600080fd5b61013560048036038101906101309190611ae9565b610395565b6040516101429190611b31565b60405180910390f35b610153610477565b6040516101609190611bdc565b60405180910390f35b610183600480360381019061017e9190611c34565b610509565b6040516101909190611ca2565b60405180910390f35b6101b360048036038101906101ae9190611ce9565b610525565b005b6101cf60048036038101906101ca9190611d29565b61053b565b005b6101eb60048036038101906101e69190611d29565b61063d565b005b6101f561065d565b6040516102029190611d8b565b60405180910390f35b61022560048036038101906102209190611c34565b610667565b6040516102329190611ca2565b60405180910390f35b61025560048036038101906102509190611da6565b610679565b6040516102629190611d8b565b60405180910390f35b610273610733565b005b61027d610747565b60405161028a9190611ca2565b60405180910390f35b61029b610771565b6040516102a89190611bdc565b60405180910390f35b6102cb60048036038101906102c69190611dff565b610803565b005b6102e760048036038101906102e29190611f74565b610819565b005b61030360048036038101906102fe9190611c34565b610836565b6040516103109190611bdc565b60405180910390f35b610333600480360381019061032e9190611ff7565b610941565b6040516103409190611b31565b60405180910390f35b610363600480360381019061035e91906120d8565b6109d5565b6040516103709190611d8b565b60405180910390f35b610393600480360381019061038e9190611da6565b610a18565b005b60007f80ac58cd000000000000000000000000000000000000000000000000000000007bffffffffffffffffffffffffffffffffffffffffffffffffffffffff1916827bffffffffffffffffffffffffffffffffffffffffffffffffffffffff1916148061046057507f5b5e139f000000000000000000000000000000000000000000000000000000007bffffffffffffffffffffffffffffffffffffffffffffffffffffffff1916827bffffffffffffffffffffffffffffffffffffffffffffffffffffffff1916145b80610470575061046f82610a9e565b5b9050919050565b60606000805461048690612163565b80601f01602080910402602001604051908101604052809291908181526020018280546104b290612163565b80156104ff5780601f106104d4576101008083540402835291602001916104ff565b820191906000526020600020905b8154815290600101906020018083116104e257829003601f168201915b5050505050905090565b600061051482610b08565b5061051e82610b90565b9050919050565b6105378282610532610bcd565b610bd5565b5050565b600073ffffffffffffffffffffffffffffffffffffffff168273ffffffffffffffffffffffffffffffffffffffff16036105ad5760006040517f64a0ae920000000000000000000000000000000000000000000000000000000081526004016105a49190611ca2565b60405180910390fd5b60006105c183836105bc610bcd565b610be7565b90508373ffffffffffffffffffffffffffffffffffffffff168173ffffffffffffffffffffffffffffffffffffffff1614610637578382826040517f64283d7b00000000000000000000000000000000000000000000000000000000815260040161062e93929190612194565b60405180910390fd5b50505050565b61065883838360405180602001604052806000815250610819565b505050565b6000600754905090565b600061067282610b08565b9050919050565b60008073ffffffffffffffffffffffffffffffffffffffff168273ffffffffffffffffffffffffffffffffffffffff16036106ec5760006040517f89c62b640000000000000000000000000000000000000000000000000000000081526004016106e39190611ca2565b60405180910390fd5b600360008373ffffffffffffffffffffffffffffffffffffffff1673ffffffffffffffffffffffffffffffffffffffff168152602001908152602001600020549050919050565b61073b610e01565b6107456000610e88565b565b6000600660009054906101000a900473ffffffffffffffffffffffffffffffffffffffff16905090565b60606001805461078090612163565b80601f01602080910402602001604051908101604052809291908181526020018280546107ac90612163565b80156107f95780601f106107ce576101008083540402835291602001916107f9565b820191906000526020600020905b8154815290600101906020018083116107dc57829003601f168201915b5050505050905090565b61081561080e610bcd565b8383610f4e565b5050565b61082484848461053b565b610830848484846110bd565b50505050565b606061084182611274565b610880576040517f08c379a00000000000000000000000000000000000000000000000000000000081526004016108779061223d565b60405180910390fd5b60006008600084815260200190815260200160002080546108a090612163565b80601f01602080910402602001604051908101604052809291908181526020018280546108cc90612163565b80156109195780601f106108ee57610100808354040283529160200191610919565b820191906000526020600020905b8154815290600101906020018083116108fc57829003601f168201915b50505050509050600081511161093757610932836112b5565b610939565b805b915050919050565b6000600560008473ffffffffffffffffffffffffffffffffffffffff1673ffffffffffffffffffffffffffffffffffffffff16815260200190815260200160002060008373ffffffffffffffffffffffffffffffffffffffff1673ffffffffffffffffffffffffffffffffffffffff16815260200190815260200160002060009054906101000a900460ff16905092915050565b60006109df610e01565b6000600760008154809291906109f49061228c565b919050559050610a04848261131e565b610a0e818461133c565b8091505092915050565b610a20610e01565b600073ffffffffffffffffffffffffffffffffffffffff168173ffffffffffffffffffffffffffffffffffffffff1603610a925760006040517f1e4fbdf7000000000000000000000000000000000000000000000000000000008152600401610a899190611ca2565b60405180910390fd5b610a9b81610e88565b50565b60007f01ffc9a7000000000000000000000000000000000000000000000000000000007bffffffffffffffffffffffffffffffffffffffffffffffffffffffff1916827bffffffffffffffffffffffffffffffffffffffffffffffffffffffff1916149050919050565b600080610b14836113a9565b9050600073ffffffffffffffffffffffffffffffffffffffff168173ffffffffffffffffffffffffffffffffffffffff1603610b8757826040517f7e273289000000000000000000000000000000000000000000000000000000008152600401610b7e9190611d8b565b60405180910390fd5b80915050919050565b60006004600083815260200190815260200160002060009054906101000a900473ffffffffffffffffffffffffffffffffffffffff169050919050565b600033905090565b610be283838360016113e6565b505050565b600080610bf3846113a9565b9050600073ffffffffffffffffffffffffffffffffffffffff168373ffffffffffffffffffffffffffffffffffffffff1614610c3557610c348184866115ab565b5b600073ffffffffffffffffffffffffffffffffffffffff168173ffffffffffffffffffffffffffffffffffffffff1614610cc657610c776000856000806113e6565b6001600360008373ffffffffffffffffffffffffffffffffffffffff1673ffffffffffffffffffffffffffffffffffffffff168152602001908152602001600020600082825403925050819055505b600073ffffffffffffffffffffffffffffffffffffffff168573ffffffffffffffffffffffffffffffffffffffff1614610d49576001600360008773ffffffffffffffffffffffffffffffffffffffff1673ffffffffffffffffffffffffffffffffffffffff168152602001908152602001600020600082825401925050819055505b846002600086815260200190815260200160002060006101000a81548173ffffffffffffffffffffffffffffffffffffffff021916908373ffffffffffffffffffffffffffffffffffffffff160217905550838573ffffffffffffffffffffffffffffffffffffffff168273ffffffffffffffffffffffffffffffffffffffff167fddf252ad1be2c89b69c2b068fc378daa952ba7f163c4a11628f55a4df523b3ef60405160405180910390a4809150509392505050565b610e09610bcd565b73ffffffffffffffffffffffffffffffffffffffff16610e27610747565b73ffffffffffffffffffffffffffffffffffffffff1614610e8657610e4a610bcd565b6040517f118cdaa7000000000000000000000000000000000000000000000000000000008152600401610e7d9190611ca2565b60405180910390fd5b565b6000600660009054906101000a900473ffffffffffffffffffffffffffffffffffffffff16905081600660006101000a81548173ffffffffffffffffffffffffffffffffffffffff021916908373ffffffffffffffffffffffffffffffffffffffff1602179055508173ffffffffffffffffffffffffffffffffffffffff168173ffffffffffffffffffffffffffffffffffffffff167f8be0079c531659141344cd1fd0a4f28419497f9722a3daafe3b4186f6b6457e060405160405180910390a35050565b600073ffffffffffffffffffffffffffffffffffffffff168273ffffffffffffffffffffffffffffffffffffffff1603610fbf57816040517f5b08ba18000000000000000000000000000000000000000000000000000000008152600401610fb69190611ca2565b60405180910390fd5b80600560008573ffffffffffffffffffffffffffffffffffffffff1673ffffffffffffffffffffffffffffffffffffffff16815260200190815260200160002060008473ffffffffffffffffffffffffffffffffffffffff1673ffffffffffffffffffffffffffffffffffffffff16815260200190815260200160002060006101000a81548160ff0219169083151502179055508173ffffffffffffffffffffffffffffffffffffffff168373ffffffffffffffffffffffffffffffffffffffff167f17307eab39ab6107e8899845ad3d59bd9653f200f220920489ca2b5937696c31836040516110b09190611b31565b60405180910390a3505050565b60008373ffffffffffffffffffffffffffffffffffffffff163b111561126e578273ffffffffffffffffffffffffffffffffffffffff1663150b7a02611101610bcd565b8685856040518563ffffffff1660e01b81526004016111239493929190612329565b6020604051808303816000875af192505050801561115f57506040513d601f19601f8201168201806040525081019061115c919061238a565b60015b6111e3573d806000811461118f576040519150601f19603f3d011682016040523d82523d6000602084013e611194565b606091505b5060008151036111db57836040517f64a0ae920000000000000000000000000000000000000000000000000000000081526004016111d29190611ca2565b60405180910390fd5b805181602001fd5b63150b7a0260e01b7bffffffffffffffffffffffffffffffffffffffffffffffffffffffff1916817bffffffffffffffffffffffffffffffffffffffffffffffffffffffff19161461126c57836040517f64a0ae920000000000000000000000000000000000000000000000000000000081526004016112639190611ca2565b60405180910390fd5b505b50505050565b60008073ffffffffffffffffffffffffffffffffffffffff16611296836113a9565b73ffffffffffffffffffffffffffffffffffffffff1614159050919050565b60606112c082610b08565b5060006112cb61166f565b905060008151116112eb5760405180602001604052806000815250611316565b806112f584611686565b6040516020016113069291906123f3565b6040516020818303038152906040525b915050919050565b611338828260405180602001604052806000815250611754565b5050565b61134582611274565b611384576040517f08c379a000000000000000000000000000000000000000000000000000000000815260040161137b90612489565b60405180910390fd5b806008600084815260200190815260200160002090816113a49190612655565b505050565b60006002600083815260200190815260200160002060009054906101000a900473ffffffffffffffffffffffffffffffffffffffff169050919050565b808061141f5750600073ffffffffffffffffffffffffffffffffffffffff168273ffffffffffffffffffffffffffffffffffffffff1614155b1561155357600061142f84610b08565b9050600073ffffffffffffffffffffffffffffffffffffffff168373ffffffffffffffffffffffffffffffffffffffff161415801561149a57508273ffffffffffffffffffffffffffffffffffffffff168173ffffffffffffffffffffffffffffffffffffffff1614155b80156114ad57506114ab8184610941565b155b156114ef57826040517fa9fbf51f0000000000000000000000000000000000000000000000000000000081526004016114e69190611ca2565b60405180910390fd5b811561155157838573ffffffffffffffffffffffffffffffffffffffff168273ffffffffffffffffffffffffffffffffffffffff167f8c5be1e5ebec7d5bd14f71427d1e84f3dd0314c0f7b2291e5b200ac8c7c3b92560405160405180910390a45b505b836004600085815260200190815260200160002060006101000a81548173ffffffffffffffffffffffffffffffffffffffff021916908373ffffffffffffffffffffffffffffffffffffffff16021790555050505050565b6115b6838383611770565b61166a57600073ffffffffffffffffffffffffffffffffffffffff168373ffffffffffffffffffffffffffffffffffffffff160361162b57806040517f7e2732890000000000000000000000000000000000000000000000000000000081526004016116229190611d8b565b60405180910390fd5b81816040517f177e802f000000000000000000000000000000000000000000000000000000008152600401611661929190612727565b60405180910390fd5b505050565b606060405180602001604052806000815250905090565b60606000600161169584611831565b01905060008167ffffffffffffffff8111156116b4576116b3611e49565b5b6040519080825280601f01601f1916602001820160405280156116e65781602001600182028036833780820191505090505b509050600082602001820190505b600115611749578080600190039150507f3031323334353637383961626364656600000000000000000000000000000000600a86061a8153600a858161173d5761173c612750565b5b049450600085036116f4575b819350505050919050565b61175e8383611984565b61176b60008484846110bd565b505050565b60008073ffffffffffffffffffffffffffffffffffffffff168373ffffffffffffffffffffffffffffffffffffffff161415801561182857508273ffffffffffffffffffffffffffffffffffffffff168473ffffffffffffffffffffffffffffffffffffffff1614806117e957506117e88484610941565b5b8061182757508273ffffffffffffffffffffffffffffffffffffffff1661180f83610b90565b73ffffffffffffffffffffffffffffffffffffffff16145b5b90509392505050565b600080600090507a184f03e93ff9f4daa797ed6e38ed64bf6a1f010000000000000000831061188f577a184f03e93ff9f4daa797ed6e38ed64bf6a1f010000000000000000838161188557611884612750565b5b0492506040810190505b6d04ee2d6d415b85acef810000000083106118cc576d04ee2d6d415b85acef810000000083816118c2576118c1612750565b5b0492506020810190505b662386f26fc1000083106118fb57662386f26fc1000083816118f1576118f0612750565b5b0492506010810190505b6305f5e1008310611924576305f5e100838161191a57611919612750565b5b0492506008810190505b612710831061194957612710838161193f5761193e612750565b5b0492506004810190505b6064831061196c576064838161196257611961612750565b5b0492506002810190505b600a831061197b576001810190505b80915050919050565b600073ffffffffffffffffffffffffffffffffffffffff168273ffffffffffffffffffffffffffffffffffffffff16036119f65760006040517f64a0ae920000000000000000000000000000000000000000000000000000000081526004016119ed9190611ca2565b60405180910390fd5b6000611a0483836000610be7565b9050600073ffffffffffffffffffffffffffffffffffffffff168173ffffffffffffffffffffffffffffffffffffffff1614611a785760006040517f73c6ac6e000000000000000000000000000000000000000000000000000000008152600401611a6f9190611ca2565b60405180910390fd5b505050565b6000604051905090565b600080fd5b600080fd5b60007fffffffff0000000000000000000000000000000000000000000000000000000082169050919050565b611ac681611a91565b8114611ad157600080fd5b50565b600081359050611ae381611abd565b92915050565b600060208284031215611aff57611afe611a87565b5b6000611b0d84828501611ad4565b91505092915050565b60008115159050919050565b611b2b81611b16565b82525050565b6000602082019050611b466000830184611b22565b92915050565b600081519050919050565b600082825260208201905092915050565b60005b83811015611b86578082015181840152602081019050611b6b565b60008484015250505050565b6000601f19601f8301169050919050565b6000611bae82611b4c565b611bb88185611b57565b9350611bc8818560208601611b68565b611bd181611b92565b840191505092915050565b60006020820190508181036000830152611bf68184611ba3565b905092915050565b6000819050919050565b611c1181611bfe565b8114611c1c57600080fd5b50565b600081359050611c2e81611c08565b92915050565b600060208284031215611c4a57611c49611a87565b5b6000611c5884828501611c1f565b91505092915050565b600073ffffffffffffffffffffffffffffffffffffffff82169050919050565b6000611c8c82611c61565b9050919050565b611c9c81611c81565b82525050565b6000602082019050611cb76000830184611c93565b92915050565b611cc681611c81565b8114611cd157600080fd5b50565b600081359050611ce381611cbd565b92915050565b60008060408385031215611d0057611cff611a87565b5b6000611d0e85828601611cd4565b9250506020611d1f85828601611c1f565b9150509250929050565b600080600060608486031215611d4257611d41611a87565b5b6000611d5086828701611cd4565b9350506020611d6186828701611cd4565b9250506040611d7286828701611c1f565b9150509250925092565b611d8581611bfe565b82525050565b6000602082019050611da06000830184611d7c565b92915050565b600060208284031215611dbc57611dbb611a87565b5b6000611dca84828501611cd4565b91505092915050565b611ddc81611b16565b8114611de757600080fd5b50565b600081359050611df981611dd3565b92915050565b60008060408385031215611e1657611e15611a87565b5b6000611e2485828601611cd4565b9250506020611e3585828601611dea565b9150509250929050565b600080fd5b600080fd5b7f4e487b7100000000000000000000000000000000000000000000000000000000600052604160045260246000fd5b611e8182611b92565b810181811067ffffffffffffffff82111715611ea057611e9f611e49565b5b80604052505050565b6000611eb3611a7d565b9050611ebf8282611e78565b919050565b600067ffffffffffffffff821115611edf57611ede611e49565b5b611ee882611b92565b9050602081019050919050565b82818337600083830152505050565b6000611f17611f1284611ec4565b611ea9565b905082815260208101848484011115611f3357611f32611e44565b5b611f3e848285611ef5565b509392505050565b600082601f830112611f5b57611f5a611e3f565b5b8135611f6b848260208601611f04565b91505092915050565b60008060008060808587031215611f8e57611f8d611a87565b5b6000611f9c87828801611cd4565b9450506020611fad87828801611cd4565b9350506040611fbe87828801611c1f565b925050606085013567ffffffffffffffff811115611fdf57611fde611a8c565b5b611feb87828801611f46565b91505092959194509250565b6000806040838503121561200e5761200d611a87565b5b600061201c85828601611cd4565b925050602061202d85828601611cd4565b9150509250929050565b600067ffffffffffffffff82111561205257612051611e49565b5b61205b82611b92565b9050602081019050919050565b600061207b61207684612037565b611ea9565b90508281526020810184848401111561209757612096611e44565b5b6120a2848285611ef5565b509392505050565b600082601f8301126120bf576120be611e3f565b5b81356120cf848260208601612068565b91505092915050565b600080604083850312156120ef576120ee611a87565b5b60006120fd85828601611cd4565b925050602083013567ffffffffffffffff81111561211e5761211d611a8c565b5b61212a858286016120aa565b9150509250929050565b7f4e487b7100000000000000000000000000000000000000000000000000000000600052602260045260246000fd5b6000600282049050600182168061217b57607f821691505b60208210810361218e5761218d612134565b5b50919050565b60006060820190506121a96000830186611c93565b6121b66020830185611d7c565b6121c36040830184611c93565b949350505050565b7f4552433732314d657461646174613a2055524920717565727920666f72206e6f60008201527f6e6578697374656e7420746f6b656e0000000000000000000000000000000000602082015250565b6000612227602f83611b57565b9150612232826121cb565b604082019050919050565b600060208201905081810360008301526122568161221a565b9050919050565b7f4e487b7100000000000000000000000000000000000000000000000000000000600052601160045260246000fd5b600061229782611bfe565b91507fffffffffffffffffffffffffffffffffffffffffffffffffffffffffffffffff82036122c9576122c861225d565b5b600182019050919050565b600081519050919050565b600082825260208201905092915050565b60006122fb826122d4565b61230581856122df565b9350612315818560208601611b68565b61231e81611b92565b840191505092915050565b600060808201905061233e6000830187611c93565b61234b6020830186611c93565b6123586040830185611d7c565b818103606083015261236a81846122f0565b905095945050505050565b60008151905061238481611abd565b92915050565b6000602082840312156123a05761239f611a87565b5b60006123ae84828501612375565b91505092915050565b600081905092915050565b60006123cd82611b4c565b6123d781856123b7565b93506123e7818560208601611b68565b80840191505092915050565b60006123ff82856123c2565b915061240b82846123c2565b91508190509392505050565b7f4552433732314d657461646174613a2055524920736574206f66206e6f6e657860008201527f697374656e7420746f6b656e0000000000000000000000000000000000000000602082015250565b6000612473602c83611b57565b915061247e82612417565b604082019050919050565b600060208201905081810360008301526124a281612466565b9050919050565b60008190508160005260206000209050919050565b60006020601f8301049050919050565b600082821b905092915050565b60006008830261250b7fffffffffffffffffffffffffffffffffffffffffffffffffffffffffffffffff826124ce565b61251586836124ce565b95508019841693508086168417925050509392505050565b6000819050919050565b600061255261254d61254884611bfe565b61252d565b611bfe565b9050919050565b6000819050919050565b61256c83612537565b61258061257882612559565b8484546124db565b825550505050565b600090565b612595612588565b6125a0818484612563565b505050565b5b818110156125c4576125b960008261258d565b6001810190506125a6565b5050565b601f821115612609576125da816124a9565b6125e3846124be565b810160208510156125f2578190505b6126066125fe856124be565b8301826125a5565b50505b505050565b600082821c905092915050565b600061262c6000198460080261260e565b1980831691505092915050565b6000612645838361261b565b9150826002028217905092915050565b61265e82611b4c565b67ffffffffffffffff81111561267757612676611e49565b5b6126818254612163565b61268c8282856125c8565b600060209050601f8311600181146126bf57600084156126ad578287015190505b6126b78582612639565b86555061271f565b601f1984166126cd866124a9565b60005b828110156126f5578489015182556001820191506020850194506020810190506126d0565b86831015612712578489015161270e601f89168261261b565b8355505b6001600288020188555050505b505050505050565b600060408201905061273c6000830185611c93565b6127496020830184611d7c565b9392505050565b7f4e487b7100000000000000000000000000000000000000000000000000000000600052601260045260246000fdfea2646970667358221220f5add8091cf0eb9bb39c4d85b02676ccce6ae18cefd9c552524ee3f5bbe5723864736f6c63430008180033",
  "linkReferences": {},
  "deployedLinkReferences": {}
}